{
  "contractName": "Bank",
  "abi": [
    {
      "inputs": [],
      "name": "deposit",
      "outputs": [],
      "stateMutability": "payable",
      "type": "function"
    },
    {
      "inputs": [
        {
          "internalType": "uint256",
          "name": "_amount",
          "type": "uint256"
        }
      ],
      "name": "withdraw",
      "outputs": [],
      "stateMutability": "nonpayable",
      "type": "function"
    },
    {
      "inputs": [
        {
          "internalType": "address",
          "name": "_address",
          "type": "address"
        }
      ],
      "name": "balanceOf",
      "outputs": [
        {
          "internalType": "uint256",
          "name": "",
          "type": "uint256"
        }
      ],
      "stateMutability": "view",
      "type": "function"
    }
  ],
  "bytecode": "0x608060405234801561001057600080fd5b5061057e806100206000396000f3fe6080604052600436106100345760003560e01c80632e1a7d4d1461003957806370a0823114610062578063d0e30db01461009f575b600080fd5b34801561004557600080fd5b50610060600480360381019061005b91906102c4565b6100a9565b005b34801561006e57600080fd5b506100896004803603810190610084919061034f565b6101ea565b604051610096919061038b565b60405180910390f35b6100a7610232565b005b806100b3336101ea565b10156100f4576040517f08c379a00000000000000000000000000000000000000000000000000000000081526004016100eb90610403565b60405180910390fd5b600081610100336101ea565b61010a9190610452565b101561014b576040517f08c379a0000000000000000000000000000000000000000000000000000000008152600401610142906104d2565b60405180910390fd5b806000803373ffffffffffffffffffffffffffffffffffffffff1673ffffffffffffffffffffffffffffffffffffffff16815260200190815260200160002060008282546101999190610452565b925050819055503373ffffffffffffffffffffffffffffffffffffffff166108fc829081150290604051600060405180830381858888f193505050501580156101e6573d6000803e3d6000fd5b5050565b60008060008373ffffffffffffffffffffffffffffffffffffffff1673ffffffffffffffffffffffffffffffffffffffff168152602001908152602001600020549050919050565b346000803373ffffffffffffffffffffffffffffffffffffffff1673ffffffffffffffffffffffffffffffffffffffff168152602001908152602001600020600082825461028091906104f2565b92505081905550565b600080fd5b6000819050919050565b6102a18161028e565b81146102ac57600080fd5b50565b6000813590506102be81610298565b92915050565b6000602082840312156102da576102d9610289565b5b60006102e8848285016102af565b91505092915050565b600073ffffffffffffffffffffffffffffffffffffffff82169050919050565b600061031c826102f1565b9050919050565b61032c81610311565b811461033757600080fd5b50565b60008135905061034981610323565b92915050565b60006020828403121561036557610364610289565b5b60006103738482850161033a565b91505092915050565b6103858161028e565b82525050565b60006020820190506103a0600083018461037c565b92915050565b600082825260208201905092915050565b7f4e65656420746f206861766520612062616c616e63652e000000000000000000600082015250565b60006103ed6017836103a6565b91506103f8826103b7565b602082019050919050565b6000602082019050818103600083015261041c816103e0565b9050919050565b7f4e487b7100000000000000000000000000000000000000000000000000000000600052601160045260246000fd5b600061045d8261028e565b91506104688361028e565b92508282101561047b5761047a610423565b5b828203905092915050565b7f496e73756666696369656e742062616c616e63652e0000000000000000000000600082015250565b60006104bc6015836103a6565b91506104c782610486565b602082019050919050565b600060208201905081810360008301526104eb816104af565b9050919050565b60006104fd8261028e565b91506105088361028e565b9250827fffffffffffffffffffffffffffffffffffffffffffffffffffffffffffffffff0382111561053d5761053c610423565b5b82820190509291505056fea2646970667358221220418505c84eed1869b25ffd7d64f9386efaf3632699673decb780f58c7a6b4edb64736f6c634300080d0033",
  "immutableReferences": {},
  "source": "// SPDX-License-Identifier: UNLICENSED\n\npragma solidity ^0.8.0;\n\ncontract Bank {\n    // mapping(address => uint) balances;\n    mapping(address => uint) private balances;\n    // mapping(address => mapping(uint => uint))\n\n    function deposit() public payable {\n      balances[msg.sender] += msg.value;\n    }\n\n    function withdraw(uint _amount) public {\n        require(balanceOf(msg.sender) >= _amount, \"Need to have a balance.\");\n        require(balanceOf(msg.sender) - _amount >= 0, \"Insufficient balance.\");\n        balances[msg.sender] -= _amount;\n        payable(msg.sender).transfer(_amount);\n    }\n\n    function balanceOf(address _address) public view returns (uint) {\n        return balances[_address];\n    }\n}\n",
  "sourcePath": "/Users/antonstoliarchuk/Desktop/Bank/contracts/Bank.sol",
  "compiler": {
    "name": "solc",
    "version": "0.8.13+commit.abaa5c0e.Emscripten.clang"
  },
  "schemaVersion": "3.4.7",
  "updatedAt": "2022-06-03T16:36:31.782Z",
  "devdoc": {
    "kind": "dev",
    "methods": {},
    "version": 1
  },
  "userdoc": {
    "kind": "user",
    "methods": {},
    "version": 1
  }
}